{
  "contractName": "Bank",
  "abi": [
    {
      "inputs": [
        {
          "internalType": "contract KEKCoin",
          "name": "_kekCoin",
          "type": "address"
        }
      ],
      "stateMutability": "nonpayable",
      "type": "constructor"
    },
    {
      "anonymous": false,
      "inputs": [
        {
          "indexed": true,
          "internalType": "address",
          "name": "user",
          "type": "address"
        },
        {
          "indexed": false,
          "internalType": "bool",
          "name": "answer",
          "type": "bool"
        },
        {
          "indexed": false,
          "internalType": "uint256",
          "name": "approvementDate",
          "type": "uint256"
        }
      ],
      "name": "CreditApproved",
      "type": "event"
    },
    {
      "anonymous": false,
      "inputs": [
        {
          "indexed": true,
          "internalType": "address",
          "name": "user",
          "type": "address"
        },
        {
          "indexed": false,
          "internalType": "uint256",
          "name": "creditDate",
          "type": "uint256"
        }
      ],
      "name": "CreditEvent",
      "type": "event"
    },
    {
      "anonymous": false,
      "inputs": [
        {
          "indexed": true,
          "internalType": "address",
          "name": "user",
          "type": "address"
        },
        {
          "indexed": false,
          "internalType": "uint256",
          "name": "amount",
          "type": "uint256"
        },
        {
          "indexed": false,
          "internalType": "uint8",
          "name": "creditProgram",
          "type": "uint8"
        },
        {
          "indexed": false,
          "internalType": "uint256",
          "name": "requestDate",
          "type": "uint256"
        }
      ],
      "name": "CreditRequest",
      "type": "event"
    },
    {
      "anonymous": false,
      "inputs": [
        {
          "indexed": true,
          "internalType": "address",
          "name": "user",
          "type": "address"
        },
        {
          "indexed": false,
          "internalType": "uint256",
          "name": "amount",
          "type": "uint256"
        },
        {
          "indexed": false,
          "internalType": "uint256",
          "name": "timeStart",
          "type": "uint256"
        },
        {
          "indexed": false,
          "internalType": "uint256",
          "name": "minEndDate",
          "type": "uint256"
        }
      ],
      "name": "DepositEvent",
      "type": "event"
    },
    {
      "anonymous": false,
      "inputs": [
        {
          "indexed": true,
          "internalType": "address",
          "name": "user",
          "type": "address"
        },
        {
          "indexed": false,
          "internalType": "uint256",
          "name": "amount",
          "type": "uint256"
        },
        {
          "indexed": false,
          "internalType": "uint8",
          "name": "depositProgram",
          "type": "uint8"
        },
        {
          "indexed": false,
          "internalType": "uint256",
          "name": "withdrawDate",
          "type": "uint256"
        }
      ],
      "name": "Withdraw",
      "type": "event"
    },
    {
      "stateMutability": "payable",
      "type": "fallback"
    },
    {
      "inputs": [],
      "name": "kekCoin",
      "outputs": [
        {
          "internalType": "contract KEKCoin",
          "name": "",
          "type": "address"
        }
      ],
      "stateMutability": "view",
      "type": "function"
    },
    {
      "inputs": [],
      "name": "owner",
      "outputs": [
        {
          "internalType": "address",
          "name": "",
          "type": "address"
        }
      ],
      "stateMutability": "view",
      "type": "function"
    },
    {
      "inputs": [
        {
          "internalType": "address",
          "name": "_beneficiary",
          "type": "address"
        }
      ],
      "name": "buyTokens",
      "outputs": [],
      "stateMutability": "payable",
      "type": "function"
    },
    {
      "inputs": [
        {
          "internalType": "uint8",
          "name": "_program",
          "type": "uint8"
        }
      ],
      "name": "getDepositProgram",
      "outputs": [
        {
          "components": [
            {
              "internalType": "uint8",
              "name": "id",
              "type": "uint8"
            },
            {
              "internalType": "bool",
              "name": "isActive",
              "type": "bool"
            },
            {
              "internalType": "uint16",
              "name": "compoundings",
              "type": "uint16"
            },
            {
              "internalType": "uint16",
              "name": "interestRate",
              "type": "uint16"
            },
            {
              "internalType": "uint16",
              "name": "minPeriod",
              "type": "uint16"
            }
          ],
          "internalType": "struct Bank.DepositProgram",
          "name": "",
          "type": "tuple"
        }
      ],
      "stateMutability": "view",
      "type": "function"
    },
    {
      "inputs": [
        {
          "internalType": "uint8",
          "name": "_program",
          "type": "uint8"
        }
      ],
      "name": "getDepositBalance",
      "outputs": [
        {
          "internalType": "uint256",
          "name": "",
          "type": "uint256"
        }
      ],
      "stateMutability": "view",
      "type": "function"
    },
    {
      "inputs": [],
      "name": "getApproval",
      "outputs": [
        {
          "internalType": "bool",
          "name": "approval",
          "type": "bool"
        }
      ],
      "stateMutability": "view",
      "type": "function"
    },
    {
      "inputs": [
        {
          "internalType": "uint8",
          "name": "_id",
          "type": "uint8"
        },
        {
          "internalType": "bool",
          "name": "_isActive",
          "type": "bool"
        },
        {
          "internalType": "uint16",
          "name": "_compoundings",
          "type": "uint16"
        },
        {
          "internalType": "uint16",
          "name": "_interestRate",
          "type": "uint16"
        },
        {
          "internalType": "uint16",
          "name": "_minPeriod",
          "type": "uint16"
        }
      ],
      "name": "addDepositProgram",
      "outputs": [],
      "stateMutability": "nonpayable",
      "type": "function"
    },
    {
      "inputs": [
        {
          "internalType": "uint8",
          "name": "_id",
          "type": "uint8"
        },
        {
          "internalType": "bool",
          "name": "_isActive",
          "type": "bool"
        },
        {
          "internalType": "uint256",
          "name": "_interestRateYear",
          "type": "uint256"
        },
        {
          "internalType": "uint256",
          "name": "_interestRateMonth",
          "type": "uint256"
        },
        {
          "internalType": "uint256",
          "name": "_minAmount",
          "type": "uint256"
        },
        {
          "internalType": "uint256",
          "name": "_maxAmount",
          "type": "uint256"
        }
      ],
      "name": "addCreditProgram",
      "outputs": [],
      "stateMutability": "nonpayable",
      "type": "function"
    },
    {
      "inputs": [
        {
          "internalType": "uint256",
          "name": "_amount",
          "type": "uint256"
        },
        {
          "internalType": "uint8",
          "name": "_program",
          "type": "uint8"
        }
      ],
      "name": "deposit",
      "outputs": [],
      "stateMutability": "nonpayable",
      "type": "function"
    },
    {
      "inputs": [
        {
          "internalType": "uint8",
          "name": "_program",
          "type": "uint8"
        }
      ],
      "name": "withdraw",
      "outputs": [],
      "stateMutability": "nonpayable",
      "type": "function"
    },
    {
      "inputs": [
        {
          "internalType": "uint256",
          "name": "_amount",
          "type": "uint256"
        },
        {
          "internalType": "uint8",
          "name": "_creditProgram",
          "type": "uint8"
        },
        {
          "internalType": "uint256",
          "name": "_period",
          "type": "uint256"
        }
      ],
      "name": "createCreditRequest",
      "outputs": [],
      "stateMutability": "nonpayable",
      "type": "function"
    },
    {
      "inputs": [
        {
          "internalType": "address",
          "name": "user",
          "type": "address"
        },
        {
          "internalType": "bool",
          "name": "answer",
          "type": "bool"
        }
      ],
      "name": "approveCreditRequest",
      "outputs": [],
      "stateMutability": "nonpayable",
      "type": "function"
    },
    {
      "inputs": [],
      "name": "takeCredit",
      "outputs": [],
      "stateMutability": "nonpayable",
      "type": "function"
    },
    {
      "inputs": [],
      "name": "payOff",
      "outputs": [],
      "stateMutability": "nonpayable",
      "type": "function"
    }
  ],
  "bytecode": "0x6080604052336000806101000a81548173ffffffffffffffffffffffffffffffffffffffff021916908373ffffffffffffffffffffffffffffffffffffffff1602179055503480156200005157600080fd5b506040516200372c3803806200372c83398181016040528101906200007791906200047a565b80600160006101000a81548173ffffffffffffffffffffffffffffffffffffffff021916908373ffffffffffffffffffffffffffffffffffffffff160217905550620000c8620000cf60201b60201c565b5062000508565b6040518060a00160405280600160ff168152602001600115158152602001600c61ffff1681526020016101f461ffff168152602001600061ffff1681525060026000600160ff16815260200190815260200160002060008201518160000160006101000a81548160ff021916908360ff16021790555060208201518160000160016101000a81548160ff02191690831515021790555060408201518160000160026101000a81548161ffff021916908361ffff16021790555060608201518160000160046101000a81548161ffff021916908361ffff16021790555060808201518160000160066101000a81548161ffff021916908361ffff1602179055509050506040518060a00160405280600260ff168152602001600115158152602001600c61ffff16815260200161032061ffff168152602001600c61ffff1681525060026000600260ff16815260200190815260200160002060008201518160000160006101000a81548160ff021916908360ff16021790555060208201518160000160016101000a81548160ff02191690831515021790555060408201518160000160026101000a81548161ffff021916908361ffff16021790555060608201518160000160046101000a81548161ffff021916908361ffff16021790555060808201518160000160066101000a81548161ffff021916908361ffff1602179055509050506040518060c00160405280600160ff1681526020016001151581526020016102588152602001670df201b695c39f8081526020016064815260200164174876e80081525060036000600160ff16815260200190815260200160002060008201518160000160006101000a81548160ff021916908360ff16021790555060208201518160000160016101000a81548160ff02191690831515021790555060408201518160010155606082015181600201556080820151816003015560a082015181600401559050506040518060c00160405280600260ff1681526020016001151581526020016103208152602001670df7926b0692510081526020016064815260200164174876e80081525060036000600260ff16815260200190815260200160002060008201518160000160006101000a81548160ff021916908360ff16021790555060208201518160000160016101000a81548160ff02191690831515021790555060408201518160010155606082015181600201556080820151816003015560a08201518160040155905050565b6000815190506200047481620004ee565b92915050565b6000602082840312156200048d57600080fd5b60006200049d8482850162000463565b91505092915050565b6000620004b382620004ce565b9050919050565b6000620004c782620004a6565b9050919050565b600073ffffffffffffffffffffffffffffffffffffffff82169050919050565b620004f981620004ba565b81146200050557600080fd5b50565b61321480620005186000396000f3fe6080604052600436106100e15760003560e01c80637f318c321161007f578063c6ab5d9011610059578063c6ab5d9014610291578063cff2ff6c146102ba578063dce77c1b146102e3578063ec8ac4d81461030c576100e2565b80637f318c32146102005780638da5cb5b1461023d578063c424239214610268576100e2565b80633e8c060e116100bb5780633e8c060e1461016c5780633fac68d5146101975780635f7567fd146101ae578063654cfdff146101d7576100e2565b80630bebdd89146100ed578063380c49f9146101185780633a1efb2d1461012f576100e2565b5b6100eb33610328565b005b3480156100f957600080fd5b506101026103d3565b60405161010f9190612846565b60405180910390f35b34801561012457600080fd5b5061012d6103f9565b005b34801561013b57600080fd5b5061015660048036038101906101519190612180565b6105fa565b60405161016391906129dc565b60405180910390f35b34801561017857600080fd5b50610181610647565b60405161018e9190612802565b60405180910390f35b3480156101a357600080fd5b506101ac61069b565b005b3480156101ba57600080fd5b506101d560048036038101906101d091906121a9565b610a7d565b005b3480156101e357600080fd5b506101fe60048036038101906101f991906120f5565b610be0565b005b34801561020c57600080fd5b5061022760048036038101906102229190612180565b610f5a565b60405161023491906129c1565b60405180910390f35b34801561024957600080fd5b50610252611025565b60405161025f9190612787565b60405180910390f35b34801561027457600080fd5b5061028f600480360381019061028a9190612220565b611049565b005b34801561029d57600080fd5b506102b860048036038101906102b39190612180565b611166565b005b3480156102c657600080fd5b506102e160048036038101906102dc9190612067565b6115b3565b005b3480156102ef57600080fd5b5061030a60048036038101906103059190612131565b6116b6565b005b6103266004803603810190610321919061203e565b610328565b005b600060019050600160009054906101000a900473ffffffffffffffffffffffffffffffffffffffff1673ffffffffffffffffffffffffffffffffffffffff166340c10f198361038084346119f490919063ffffffff16565b6040518363ffffffff1660e01b815260040161039d9291906127d9565b600060405180830381600087803b1580156103b757600080fd5b505af11580156103cb573d6000803e3d6000fd5b505050505050565b600160009054906101000a900473ffffffffffffffffffffffffffffffffffffffff1681565b60011515600760003373ffffffffffffffffffffffffffffffffffffffff1673ffffffffffffffffffffffffffffffffffffffff16815260200190815260200160002060009054906101000a900460ff1615151461048c576040517f08c379a0000000000000000000000000000000000000000000000000000000008152600401610483906128e1565b60405180910390fd5b6000600660003373ffffffffffffffffffffffffffffffffffffffff1673ffffffffffffffffffffffffffffffffffffffff168152602001908152602001600020905060018160040160006101000a81548160ff021916908315150217905550428160020181905550600160009054906101000a900473ffffffffffffffffffffffffffffffffffffffff1673ffffffffffffffffffffffffffffffffffffffff1663a9059cbb3383600001546040518363ffffffff1660e01b81526004016105569291906127d9565b602060405180830381600087803b15801561057057600080fd5b505af1158015610584573d6000803e3d6000fd5b505050506040513d601f19601f820116820180604052508101906105a891906120a3565b503373ffffffffffffffffffffffffffffffffffffffff167f5a7bed8b0862af1f98128c4a9449cd5e81962cc7bcf33c9caa9255d5b954518d426040516105ef91906129dc565b60405180910390a250565b600080338360405160200161061092919061275b565b6040516020818303038152906040528051906020012090506004600082815260200190815260200160002060000154915050919050565b6000600760003373ffffffffffffffffffffffffffffffffffffffff1673ffffffffffffffffffffffffffffffffffffffff16815260200190815260200160002060009054906101000a900460ff16905090565b6000600660003373ffffffffffffffffffffffffffffffffffffffff1673ffffffffffffffffffffffffffffffffffffffff16815260200190815260200160002090508060040160009054906101000a900460ff1661072f576040517f08c379a000000000000000000000000000000000000000000000000000000000815260040161072690612961565b60405180910390fd5b60008160040160006101000a81548160ff0219169083151502179055506000620186a090506000600360008460010160009054906101000a900460ff1660ff1660ff1681526020019081526020016000206040518060c00160405290816000820160009054906101000a900460ff1660ff1660ff1681526020016000820160019054906101000a900460ff16151515158152602001600182015481526020016002820154815260200160038201548152602001600482015481525050905060008284600001546107ff9190612e83565b9050600061081a428660020154611a0a90919063ffffffff16565b905060005b600c8261082c9190612bca565b8110156108725761271084604001516127106108489190612b0a565b846108539190612e83565b61085d9190612bca565b9250808061086a90613036565b91505061081f565b506000600c8261088291906130b5565b905060005b818110156108c757670de0b6b3a76400008560600151856108a89190612e83565b6108b29190612bca565b935080806108bf90613036565b915050610887565b5084836108d49190612bca565b925082600160009054906101000a900473ffffffffffffffffffffffffffffffffffffffff1673ffffffffffffffffffffffffffffffffffffffff166370a08231336040518263ffffffff1660e01b81526004016109329190612787565b60206040518083038186803b15801561094a57600080fd5b505afa15801561095e573d6000803e3d6000fd5b505050506040513d601f19601f8201168201806040525081019061098291906120cc565b10156109c3576040517f08c379a00000000000000000000000000000000000000000000000000000000081526004016109ba906128c1565b60405180910390fd5b600160009054906101000a900473ffffffffffffffffffffffffffffffffffffffff1673ffffffffffffffffffffffffffffffffffffffff166323b872dd3330866040518463ffffffff1660e01b8152600401610a22939291906127a2565b602060405180830381600087803b158015610a3c57600080fd5b505af1158015610a50573d6000803e3d6000fd5b505050506040513d601f19601f82011682018060405250810190610a7491906120a3565b50505050505050565b60008054906101000a900473ffffffffffffffffffffffffffffffffffffffff1673ffffffffffffffffffffffffffffffffffffffff163373ffffffffffffffffffffffffffffffffffffffff1614610ad557600080fd5b60006040518060a001604052808760ff16815260200186151581526020018561ffff1681526020018461ffff1681526020018361ffff16815250905080600260008860ff1660ff16815260200190815260200160002060008201518160000160006101000a81548160ff021916908360ff16021790555060208201518160000160016101000a81548160ff02191690831515021790555060408201518160000160026101000a81548161ffff021916908361ffff16021790555060608201518160000160046101000a81548161ffff021916908361ffff16021790555060808201518160000160066101000a81548161ffff021916908361ffff160217905550905050505050505050565b600160009054906101000a900473ffffffffffffffffffffffffffffffffffffffff1673ffffffffffffffffffffffffffffffffffffffff166323b872dd3330856040518463ffffffff1660e01b8152600401610c3f939291906127a2565b602060405180830381600087803b158015610c5957600080fd5b505af1158015610c6d573d6000803e3d6000fd5b505050506040513d601f19601f82011682018060405250810190610c9191906120a3565b5060003382604051602001610ca792919061275b565b6040516020818303038152906040528051906020012090506000600260008460ff1660ff16815260200190815260200160002060000160009054906101000a900460ff1660ff161415610d2f576040517f08c379a0000000000000000000000000000000000000000000000000000000008152600401610d2690612921565b60405180910390fd5b600260008360ff1660ff16815260200190815260200160002060000160019054906101000a900460ff16610d98576040517f08c379a0000000000000000000000000000000000000000000000000000000008152600401610d8f906128a1565b60405180910390fd5b60008311610ddb576040517f08c379a0000000000000000000000000000000000000000000000000000000008152600401610dd290612901565b60405180910390fd5b600015156005600083815260200190815260200160002060009054906101000a900460ff16151514610e42576040517f08c379a0000000000000000000000000000000000000000000000000000000008152600401610e3990612881565b60405180910390fd5b6000600260008460ff1660ff16815260200190815260200160002060000160069054906101000a900461ffff1661ffff16905060016005600084815260200190815260200160002060006101000a81548160ff0219169083151502179055506040518060600160405280858152602001428152602001610ec24284611ab0565b815250600460008481526020019081526020016000206000820151816000015560208201518160010155604082015181600201559050503373ffffffffffffffffffffffffffffffffffffffff167f62ecb2a394867776d4797065f4c2c678a4d98de37e96d0a89642599b6e0c4f548542610f3d4286611ab0565b604051610f4c939291906129f7565b60405180910390a250505050565b610f62611f6b565b600260008360ff1660ff1681526020019081526020016000206040518060a00160405290816000820160009054906101000a900460ff1660ff1660ff1681526020016000820160019054906101000a900460ff161515151581526020016000820160029054906101000a900461ffff1661ffff1661ffff1681526020016000820160049054906101000a900461ffff1661ffff1661ffff1681526020016000820160069054906101000a900461ffff1661ffff1661ffff16815250509050919050565b60008054906101000a900473ffffffffffffffffffffffffffffffffffffffff1681565b60008054906101000a900473ffffffffffffffffffffffffffffffffffffffff1673ffffffffffffffffffffffffffffffffffffffff163373ffffffffffffffffffffffffffffffffffffffff16146110a157600080fd5b60006040518060c001604052808860ff168152602001871515815260200186815260200185815260200184815260200183815250905080600360008960ff1660ff16815260200190815260200160002060008201518160000160006101000a81548160ff021916908360ff16021790555060208201518160000160016101000a81548160ff02191690831515021790555060408201518160010155606082015181600201556080820151816003015560a0820151816004015590505050505050505050565b6000338260405160200161117b92919061275b565b604051602081830303815290604052805190602001209050600115156005600083815260200190815260200160002060009054906101000a900460ff161515146111fa576040517f08c379a00000000000000000000000000000000000000000000000000000000081526004016111f190612861565b60405180910390fd5b6000600260008460ff1660ff1681526020019081526020016000209050600060046000848152602001908152602001600020905080600201544210156113785760006005600085815260200190815260200160002060006101000a81548160ff021916908315150217905550600160009054906101000a900473ffffffffffffffffffffffffffffffffffffffff1673ffffffffffffffffffffffffffffffffffffffff1663a9059cbb3383600001546040518363ffffffff1660e01b81526004016112c79291906127d9565b602060405180830381600087803b1580156112e157600080fd5b505af11580156112f5573d6000803e3d6000fd5b505050506040513d601f19601f8201168201806040525081019061131991906120a3565b503373ffffffffffffffffffffffffffffffffffffffff167fc6c74a68f89b63353b582f75a2009daefef14ef389fbf7e30edb6141f414f0288260000154864260405161136893929190612a2e565b60405180910390a25050506115b0565b60006005905060008360000160049054906101000a900461ffff1661ffff16905060008460000160029054906101000a900461ffff1661ffff16905060006301e133808560010154426113cb9190612f71565b836113d69190612e83565b6113e09190612bca565b9050600084600a6113f19190612c4e565b86600001546114009190612e83565b905060005b8281101561145e576127108461141b9190612e83565b856127108661142a9190612e83565b6114349190612b0a565b8361143f9190612e83565b6114499190612bca565b9150808061145690613036565b915050611405565b5084600a61146c9190612c4e565b816114779190612bca565b90506000600560008a815260200190815260200160002060006101000a81548160ff021916908315150217905550600160009054906101000a900473ffffffffffffffffffffffffffffffffffffffff1673ffffffffffffffffffffffffffffffffffffffff1663a9059cbb33836040518363ffffffff1660e01b81526004016115029291906127d9565b602060405180830381600087803b15801561151c57600080fd5b505af1158015611530573d6000803e3d6000fd5b505050506040513d601f19601f8201168201806040525081019061155491906120a3565b503373ffffffffffffffffffffffffffffffffffffffff167fc6c74a68f89b63353b582f75a2009daefef14ef389fbf7e30edb6141f414f028828b4260405161159f93929190612a2e565b60405180910390a250505050505050505b50565b60008054906101000a900473ffffffffffffffffffffffffffffffffffffffff1673ffffffffffffffffffffffffffffffffffffffff163373ffffffffffffffffffffffffffffffffffffffff161461160b57600080fd5b80600760008473ffffffffffffffffffffffffffffffffffffffff1673ffffffffffffffffffffffffffffffffffffffff16815260200190815260200160002060006101000a81548160ff0219169083151502179055508173ffffffffffffffffffffffffffffffffffffffff167f95cbf58d692004acc5cb2cabb391a8a14b79915f133662e90243bd01f04d541882426040516116aa92919061281d565b60405180910390a25050565b6000600360008460ff1660ff1681526020019081526020016000206040518060c00160405290816000820160009054906101000a900460ff1660ff1660ff1681526020016000820160019054906101000a900460ff1615151515815260200160018201548152602001600282015481526020016003820154815260200160048201548152505090506000816000015160ff161415611789576040517f08c379a000000000000000000000000000000000000000000000000000000000815260040161178090612981565b60405180910390fd5b806080015184101580156117a157508060a001518411155b6117e0576040517f08c379a00000000000000000000000000000000000000000000000000000000081526004016117d7906129a1565b60405180910390fd5b60001515600660003373ffffffffffffffffffffffffffffffffffffffff1673ffffffffffffffffffffffffffffffffffffffff16815260200190815260200160002060040160009054906101000a900460ff16151514611876576040517f08c379a000000000000000000000000000000000000000000000000000000000815260040161186d90612941565b60405180910390fd5b6000600760003373ffffffffffffffffffffffffffffffffffffffff1673ffffffffffffffffffffffffffffffffffffffff16815260200190815260200160002060006101000a81548160ff0219169083151502179055506040518060a001604052808581526020018460ff16815260200142815260200183815260200160001515815250600660003373ffffffffffffffffffffffffffffffffffffffff1673ffffffffffffffffffffffffffffffffffffffff1681526020019081526020016000206000820151816000015560208201518160010160006101000a81548160ff021916908360ff160217905550604082015181600201556060820151816003015560808201518160040160006101000a81548160ff0219169083151502179055509050503373ffffffffffffffffffffffffffffffffffffffff167fb7956d409c3803c1cea1acbc72c199d8d9ffc64b334db5f21e1ee30d898dc0968585426040516119e693929190612a2e565b60405180910390a250505050565b60008183611a029190612e83565b905092915050565b600081831115611a1957600080fd5b600080600080600080611a39620151808a611a349190612bca565b611b99565b809650819750829850505050611a5c6201518089611a579190612bca565b611b99565b80935081945082955050505084600c87611a769190612e83565b83600c86611a849190612e83565b611a8e9190612b0a565b611a989190612f71565b611aa29190612f71565b965050505050505092915050565b600080600080611acd6201518087611ac89190612bca565b611b99565b8093508194508295505050508482611ae59190612b0a565b9150600c600183611af69190612f71565b611b009190612bca565b83611b0b9190612b0a565b92506001600c600184611b1e9190612f71565b611b2891906130b5565b611b329190612b0a565b91506000611b408484611d38565b905080821115611b4e578091505b6201518087611b5d91906130b5565b62015180611b6c868686611dc3565b611b769190612e83565b611b809190612b0a565b945086851015611b8f57600080fd5b5050505092915050565b600080600080849050600062253d8c62010bd983611bb79190612a76565b611bc19190612a76565b9050600062023ab1826004611bd69190612d6c565b611be09190612b60565b9050600460038262023ab1611bf59190612d6c565b611bff9190612a76565b611c099190612b60565b82611c149190612edd565b9150600062164b09600184611c299190612a76565b610fa0611c369190612d6c565b611c409190612b60565b9050601f6004826105b5611c549190612d6c565b611c5e9190612b60565b84611c699190612edd565b611c739190612a76565b9250600061098f846050611c879190612d6c565b611c919190612b60565b9050600060508261098f611ca59190612d6c565b611caf9190612b60565b85611cba9190612edd565b9050600b82611cc99190612b60565b945084600c611cd89190612d6c565b600283611ce59190612a76565b611cef9190612edd565b91508483603186611d009190612edd565b6064611d0c9190612d6c565b611d169190612a76565b611d209190612a76565b92508298508197508096505050505050509193909250565b60006001821480611d495750600382145b80611d545750600582145b80611d5f5750600782145b80611d6a5750600882145b80611d755750600a82145b80611d805750600c82145b15611d8e57601f9050611dbd565b60028214611d9f57601e9050611dbc565b611da883611f22565b611db357601c611db6565b601d5b60ff1690505b5b92915050565b60006107b2841015611dd457600080fd5b600084905060008490506000849050600062253d8c60046064600c600e87611dfc9190612edd565b611e069190612b60565b61132488611e149190612a76565b611e1e9190612a76565b611e289190612b60565b6003611e349190612d6c565b611e3e9190612b60565b600c80600c600e88611e509190612edd565b611e5a9190612b60565b611e649190612d6c565b600287611e719190612edd565b611e7b9190612edd565b61016f611e889190612d6c565b611e929190612b60565b6004600c600e88611ea39190612edd565b611ead9190612b60565b6112c089611ebb9190612a76565b611ec59190612a76565b6105b5611ed29190612d6c565b611edc9190612b60565b617d4b86611eea9190612edd565b611ef49190612a76565b611efe9190612a76565b611f089190612edd565b611f129190612edd565b9050809450505050509392505050565b600080600483611f3291906130b5565b148015611f4c57506000606483611f4991906130b5565b14155b80611f645750600061019083611f6291906130b5565b145b9050919050565b6040518060a00160405280600060ff168152602001600015158152602001600061ffff168152602001600061ffff168152602001600061ffff1681525090565b600081359050611fba8161316b565b92915050565b600081359050611fcf81613182565b92915050565b600081519050611fe481613182565b92915050565b600081359050611ff981613199565b92915050565b60008135905061200e816131b0565b92915050565b600081519050612023816131b0565b92915050565b600081359050612038816131c7565b92915050565b60006020828403121561205057600080fd5b600061205e84828501611fab565b91505092915050565b6000806040838503121561207a57600080fd5b600061208885828601611fab565b925050602061209985828601611fc0565b9150509250929050565b6000602082840312156120b557600080fd5b60006120c384828501611fd5565b91505092915050565b6000602082840312156120de57600080fd5b60006120ec84828501612014565b91505092915050565b6000806040838503121561210857600080fd5b600061211685828601611fff565b925050602061212785828601612029565b9150509250929050565b60008060006060848603121561214657600080fd5b600061215486828701611fff565b935050602061216586828701612029565b925050604061217686828701611fff565b9150509250925092565b60006020828403121561219257600080fd5b60006121a084828501612029565b91505092915050565b600080600080600060a086880312156121c157600080fd5b60006121cf88828901612029565b95505060206121e088828901611fc0565b94505060406121f188828901611fea565b935050606061220288828901611fea565b925050608061221388828901611fea565b9150509295509295909350565b60008060008060008060c0878903121561223957600080fd5b600061224789828a01612029565b965050602061225889828a01611fc0565b955050604061226989828a01611fff565b945050606061227a89828a01611fff565b935050608061228b89828a01611fff565b92505060a061229c89828a01611fff565b9150509295509295509295565b6122b281612fa5565b82525050565b6122c96122c482612fa5565b61307f565b82525050565b6122d881612fb7565b82525050565b6122e781612fb7565b82525050565b6122f681613012565b82525050565b6000612309602f83612a65565b91507f4572726f722c20596f75206d757374206861766520616374697665206465706f60008301527f73697420746f20776974686472617700000000000000000000000000000000006020830152604082019050919050565b600061236f603a83612a65565b91507f4572726f722c20596f752063616e2774206d616b652061206465706f7369742c60008301527f20696620796f7520616c726561647920686176652061206f6e650000000000006020830152604082019050919050565b60006123d5602583612a65565b91507f526571756573746564204465706f73697450726f6772616d2069736e2774206160008301527f63746976650000000000000000000000000000000000000000000000000000006020830152604082019050919050565b600061243b601e83612a65565b91507f4e6f7420656e6f756768204b454b636f696e7320746f20706179206f666600006000830152602082019050919050565b600061247b602683612a65565b91507f596f752073686f756c64206765742063726564697420617070726f76616c206660008301527f697273746c7900000000000000000000000000000000000000000000000000006020830152604082019050919050565b60006124e1602083612a65565b91507f4465706f73697420616d6f756e742073686f756c642062652061626f766520306000830152602082019050919050565b6000612521602683612a65565b91507f526571756573746564204465706f73697450726f6772616d20646f65736e277460008301527f20657869737400000000000000000000000000000000000000000000000000006020830152604082019050919050565b6000612587601983612a65565b91507f596f7520616c72656164792068617665206120637265646974000000000000006000830152602082019050919050565b60006125c7601d83612a65565b91507f596f75722063726564697420616c7265616479207061796564206f66660000006000830152602082019050919050565b6000612607601f83612a65565b91507f4372656469742070726f6772616d20646f65736e2774206578697374212121006000830152602082019050919050565b6000612647602c83612a65565b91507f616d6f756e7420697320756e61636365707461626c6520666f7220726571756560008301527f737465642070726f6772616d00000000000000000000000000000000000000006020830152604082019050919050565b60a0820160008201516126b66000850182612726565b5060208201516126c960208501826122cf565b5060408201516126dc6040850182612708565b5060608201516126ef6060850182612708565b5060808201516127026080850182612708565b50505050565b61271181612fcd565b82525050565b61272081612ffb565b82525050565b61272f81613005565b82525050565b61273e81613005565b82525050565b61275561275082613005565b6130a3565b82525050565b600061276782856122b8565b6014820191506127778284612744565b6001820191508190509392505050565b600060208201905061279c60008301846122a9565b92915050565b60006060820190506127b760008301866122a9565b6127c460208301856122a9565b6127d16040830184612717565b949350505050565b60006040820190506127ee60008301856122a9565b6127fb6020830184612717565b9392505050565b600060208201905061281760008301846122de565b92915050565b600060408201905061283260008301856122de565b61283f6020830184612717565b9392505050565b600060208201905061285b60008301846122ed565b92915050565b6000602082019050818103600083015261287a816122fc565b9050919050565b6000602082019050818103600083015261289a81612362565b9050919050565b600060208201905081810360008301526128ba816123c8565b9050919050565b600060208201905081810360008301526128da8161242e565b9050919050565b600060208201905081810360008301526128fa8161246e565b9050919050565b6000602082019050818103600083015261291a816124d4565b9050919050565b6000602082019050818103600083015261293a81612514565b9050919050565b6000602082019050818103600083015261295a8161257a565b9050919050565b6000602082019050818103600083015261297a816125ba565b9050919050565b6000602082019050818103600083015261299a816125fa565b9050919050565b600060208201905081810360008301526129ba8161263a565b9050919050565b600060a0820190506129d660008301846126a0565b92915050565b60006020820190506129f16000830184612717565b92915050565b6000606082019050612a0c6000830186612717565b612a196020830185612717565b612a266040830184612717565b949350505050565b6000606082019050612a436000830186612717565b612a506020830185612735565b612a5d6040830184612717565b949350505050565b600082825260208201905092915050565b6000612a8182612fc3565b9150612a8c83612fc3565b9250817f7fffffffffffffffffffffffffffffffffffffffffffffffffffffffffffffff03831360008312151615612ac757612ac66130e6565b5b817f8000000000000000000000000000000000000000000000000000000000000000038312600083121615612aff57612afe6130e6565b5b828201905092915050565b6000612b1582612ffb565b9150612b2083612ffb565b9250827fffffffffffffffffffffffffffffffffffffffffffffffffffffffffffffffff03821115612b5557612b546130e6565b5b828201905092915050565b6000612b6b82612fc3565b9150612b7683612fc3565b925082612b8657612b85613115565b5b600160000383147f800000000000000000000000000000000000000000000000000000000000000083141615612bbf57612bbe6130e6565b5b828205905092915050565b6000612bd582612ffb565b9150612be083612ffb565b925082612bf057612bef613115565b5b828204905092915050565b6000808291508390505b6001851115612c4557808604811115612c2157612c206130e6565b5b6001851615612c305780820291505b8081029050612c3e8561315e565b9450612c05565b94509492505050565b6000612c5982612ffb565b9150612c6483613005565b9250612c917fffffffffffffffffffffffffffffffffffffffffffffffffffffffffffffffff8484612c99565b905092915050565b600082612ca95760019050612d65565b81612cb75760009050612d65565b8160018114612ccd5760028114612cd757612d06565b6001915050612d65565b60ff841115612ce957612ce86130e6565b5b8360020a915084821115612d0057612cff6130e6565b5b50612d65565b5060208310610133831016604e8410600b8410161715612d3b5782820a905083811115612d3657612d356130e6565b5b612d65565b612d488484846001612bfb565b92509050818404811115612d5f57612d5e6130e6565b5b81810290505b9392505050565b6000612d7782612fc3565b9150612d8283612fc3565b9250827f7fffffffffffffffffffffffffffffffffffffffffffffffffffffffffffffff0482116000841360008413161615612dc157612dc06130e6565b5b817f80000000000000000000000000000000000000000000000000000000000000000583126000841260008413161615612dfe57612dfd6130e6565b5b827f80000000000000000000000000000000000000000000000000000000000000000582126000841360008412161615612e3b57612e3a6130e6565b5b827f7fffffffffffffffffffffffffffffffffffffffffffffffffffffffffffffff0582126000841260008412161615612e7857612e776130e6565b5b828202905092915050565b6000612e8e82612ffb565b9150612e9983612ffb565b9250817fffffffffffffffffffffffffffffffffffffffffffffffffffffffffffffffff0483118215151615612ed257612ed16130e6565b5b828202905092915050565b6000612ee882612fc3565b9150612ef383612fc3565b9250827f800000000000000000000000000000000000000000000000000000000000000001821260008412151615612f2e57612f2d6130e6565b5b827f7fffffffffffffffffffffffffffffffffffffffffffffffffffffffffffffff018213600084121615612f6657612f656130e6565b5b828203905092915050565b6000612f7c82612ffb565b9150612f8783612ffb565b925082821015612f9a57612f996130e6565b5b828203905092915050565b6000612fb082612fdb565b9050919050565b60008115159050919050565b6000819050919050565b600061ffff82169050919050565b600073ffffffffffffffffffffffffffffffffffffffff82169050919050565b6000819050919050565b600060ff82169050919050565b600061301d82613024565b9050919050565b600061302f82612fdb565b9050919050565b600061304182612ffb565b91507fffffffffffffffffffffffffffffffffffffffffffffffffffffffffffffffff821415613074576130736130e6565b5b600182019050919050565b600061308a82613091565b9050919050565b600061309c82613151565b9050919050565b60006130ae82613144565b9050919050565b60006130c082612ffb565b91506130cb83612ffb565b9250826130db576130da613115565b5b828206905092915050565b7f4e487b7100000000000000000000000000000000000000000000000000000000600052601160045260246000fd5b7f4e487b7100000000000000000000000000000000000000000000000000000000600052601260045260246000fd5b60008160f81b9050919050565b60008160601b9050919050565b60008160011c9050919050565b61317481612fa5565b811461317f57600080fd5b50565b61318b81612fb7565b811461319657600080fd5b50565b6131a281612fcd565b81146131ad57600080fd5b50565b6131b981612ffb565b81146131c457600080fd5b50565b6131d081613005565b81146131db57600080fd5b5056fea26469706673582212206f1b9d627bcaa8ff680f7a0a9882652684da08aa365b42a6f2d04cbaa4134e1e64736f6c63430008000033",
  "immutableReferences": {},
  "source": "// SPDX-License-Identifier: MIT\r\npragma solidity >=0.4.22 <0.9.0;\r\n\r\nimport \"openzeppelin-solidity/contracts/utils/math/SafeMath.sol\";\r\n\r\nimport \"./KEKCoin.sol\";\r\nimport \"./datatime.sol\";\r\n\r\ncontract Bank {\r\n    using BokkyPooBahsDateTimeLibrary for uint256;\r\n    using SafeMath for uint256;\r\n\r\n  \tstruct DepositProgram {\r\n        uint8 id;\r\n  \t\tbool isActive;\r\n        uint16 compoundings;\r\n        uint16 interestRate; //2 decimals 625 => 6.25%\r\n        uint16 minPeriod; //period in months\r\n    }\r\n\r\n    struct Deposit {\r\n        uint startAmount;\r\n        uint depositStartDate;\r\n        uint minEndDate;\r\n    }\r\n\r\n    struct CreditProgram {\r\n        uint8 id;\r\n        bool isActive;\r\n        uint interestRateYear; //2 decimals 625 => 6.25%\r\n        uint interestRateMonth; //18 decimals, (1+r)^(1/12) (calculating this value in solidity is extremely costly)\r\n        uint minAmount;\r\n        uint maxAmount;\r\n    }\r\n    \r\n    struct Credit {\r\n        uint amount;\r\n        uint8 creditProgram;\r\n        uint creditStartDate;\r\n        uint period;\r\n        bool isActive;\r\n    }\r\n\r\n    address public owner = msg.sender;\r\n\r\n\tKEKCoin public kekCoin;\r\n\r\n\tmapping (uint8 => DepositProgram) private depositPrograms;\r\n    mapping (uint8 => CreditProgram) private creditPrograms;\r\n\r\n\tmapping (bytes32 => Deposit) private deposits;\r\n\tmapping (bytes32 => bool) private activeDepositProgramsForUser;\r\n\r\n    mapping (address => Credit) private credits; \r\n    mapping (address => bool) private creditApprovals;\r\n\r\n\tevent DepositEvent(address indexed user, uint amount, uint timeStart, uint minEndDate);\r\n    event Withdraw(address indexed user, uint amount, uint8 depositProgram, uint withdrawDate);\r\n    event CreditRequest(address indexed user, uint amount, uint8 creditProgram, uint requestDate);\r\n    event CreditApproved(address indexed user, bool answer, uint approvementDate);\r\n    event CreditEvent(address indexed user, uint creditDate);\r\n\r\n\tconstructor(KEKCoin _kekCoin) {\r\n\t\tkekCoin = _kekCoin;\r\n\t\tloadPrograms();\r\n\t}\r\n\r\n    modifier onlyOwner() { \r\n        require (msg.sender == owner); \r\n        _; \r\n    }\r\n\r\n\r\n    fallback () external payable {\r\n        buyTokens(msg.sender);\r\n    } \r\n\r\n    function buyTokens(address _beneficiary) public payable {\r\n        uint rate = 1;\r\n\r\n        kekCoin.mint(_beneficiary, msg.value.mul(rate));\r\n\r\n    }\r\n\r\n\tfunction getDepositProgram(uint8 _program) public view returns (DepositProgram memory){\r\n\t\treturn depositPrograms[_program];\r\n\t}\r\n\r\n\tfunction getDepositBalance(uint8 _program) public view returns (uint){\r\n\t\tbytes32 key = keccak256(abi.encodePacked(msg.sender, _program));\r\n\t\treturn deposits[key].startAmount;\r\n\t}\r\n\r\n    function getApproval() public view returns(bool approval){\r\n        approval = creditApprovals[msg.sender];\r\n    }\r\n    \r\n    function addDepositProgram(\r\n    \tuint8 _id, \r\n    \tbool _isActive,\r\n    \tuint16 _compoundings,\r\n    \tuint16 _interestRate, \r\n    \tuint16 _minPeriod\r\n    ) \r\n    \tpublic \r\n        onlyOwner\r\n    {\r\n    \tDepositProgram memory depositProgram = DepositProgram(_id, _isActive, _compoundings, _interestRate, _minPeriod);\r\n    \tdepositPrograms[_id] = depositProgram;\r\n  \t}\r\n\r\n    function addCreditProgram(\r\n        uint8 _id,\r\n        bool _isActive,\r\n        uint _interestRateYear,\r\n        uint _interestRateMonth, \r\n        uint _minAmount,\r\n        uint _maxAmount\r\n    ) \r\n        public \r\n        onlyOwner\r\n    {\r\n        CreditProgram memory creditProgram = CreditProgram(_id, _isActive, _interestRateYear, _interestRateMonth, _minAmount, _maxAmount);\r\n        creditPrograms[_id] = creditProgram;\r\n    }\r\n\r\n  \tfunction deposit(uint _amount, uint8 _program) public {\r\n  \t\tkekCoin.transferFrom(msg.sender, address(this), _amount);\r\n\r\n  \t\tbytes32 key = keccak256(abi.encodePacked(msg.sender, _program));\r\n\r\n        require(depositPrograms[_program].id != 0, \"Requested DepositProgram doesn't exist\");\r\n        require(depositPrograms[_program].isActive, \"Requested DepositProgram isn't active\");\r\n        require(_amount > 0, \"Deposit amount should be above 0\");\r\n  \t\trequire(activeDepositProgramsForUser[key] == false, \"Error, You can't make a deposit, if you already have a one\");\r\n\r\n        uint minPeriod = depositPrograms[_program].minPeriod;\r\n  \t\tactiveDepositProgramsForUser[key] = true;\r\n  \t\tdeposits[key] = Deposit(_amount, block.timestamp, BokkyPooBahsDateTimeLibrary.addMonths(block.timestamp, minPeriod));\r\n  \t\temit DepositEvent(msg.sender, _amount, block.timestamp,BokkyPooBahsDateTimeLibrary.addMonths(block.timestamp, minPeriod));\r\n  \t}\r\n\r\n\r\n  \tfunction withdraw(uint8 _program) public {\r\n  \t\tbytes32 key = keccak256(abi.encodePacked(msg.sender, _program));\r\n  \t\trequire(activeDepositProgramsForUser[key] == true, \"Error, You must have active deposit to withdraw\");\r\n\r\n \t\tDepositProgram storage depositProgram = depositPrograms[_program];\r\n \t\tDeposit storage dep = deposits[key];\r\n\r\n        if (block.timestamp < dep.minEndDate){\r\n            activeDepositProgramsForUser[key] = false;\r\n            kekCoin.transfer(msg.sender, dep.startAmount);\r\n            emit Withdraw(msg.sender, dep.startAmount, _program, block.timestamp);\r\n            return;\r\n        }\r\n\r\n \t\tuint8 shift = 5;\r\n \t\t//shifting decimal point to increase accuracy of calculating\r\n \t\tuint r = depositProgram.interestRate;\r\n \t\tuint n = depositProgram.compoundings;\r\n\r\n \t\tuint ny = (n*(block.timestamp - dep.depositStartDate)/(24*60*60*365));\r\n\r\n \t\tuint amount = dep.startAmount*10**shift;\r\n\r\n        // X = D(1 + r/n)^n*y\r\n\r\n \t\tfor (uint i = 0;i < ny; i++){\r\n \t\t\tamount = (amount * (n*10000 + r)) / (n*10000);\r\n \t\t}\r\n\r\n \t\tamount = amount/10**shift;\r\n\r\n        activeDepositProgramsForUser[key] = false;\r\n \t\tkekCoin.transfer(msg.sender, amount);\r\n        emit Withdraw(msg.sender, amount, _program, block.timestamp);\r\n  \t}\r\n\r\n    function createCreditRequest(uint _amount, uint8 _creditProgram, uint _period) public {\r\n\r\n        CreditProgram memory program = creditPrograms[_creditProgram];\r\n        require (program.id != 0, \"Credit program doesn't exist!!!\");\r\n        require (_amount >= program.minAmount && _amount <= program.maxAmount, \"amount is unacceptable for requested program\");\r\n        require (credits[msg.sender].isActive == false, \"You already have a credit\");\r\n\r\n        creditApprovals[msg.sender] = false;\r\n        credits[msg.sender] = Credit(_amount, _creditProgram,block.timestamp,_period,false);\r\n        emit CreditRequest(msg.sender, _amount, _creditProgram, block.timestamp);\r\n    }\r\n\r\n    function approveCreditRequest(address user, bool answer) public onlyOwner {\r\n        creditApprovals[user] = answer;\r\n        emit CreditApproved(user, answer, block.timestamp);\r\n    }\r\n\r\n    function takeCredit() public {\r\n        require (creditApprovals[msg.sender] == true, \"You should get credit approval firstly\");\r\n\r\n        Credit storage credit = credits[msg.sender];\r\n\r\n        credit.isActive = true;\r\n        credit.creditStartDate = block.timestamp;\r\n        kekCoin.transfer(msg.sender, credit.amount);\r\n\r\n        emit CreditEvent(msg.sender, block.timestamp);\r\n    }\r\n\r\n    function payOff() public {\r\n        Credit storage credit = credits[msg.sender]; \r\n        require(credit.isActive, \"Your credit already payed off\");\r\n\r\n        credit.isActive = false;\r\n\r\n        uint shift = 10**5;\r\n\r\n        CreditProgram memory program = creditPrograms[credit.creditProgram];\r\n\r\n        uint amount = credit.amount*shift;\r\n        uint months = credit.creditStartDate.diffMonths(block.timestamp);\r\n\r\n        for (uint i = 0; i < months/12; i++) {\r\n            amount = (amount * (10000 + program.interestRateYear)) / 10000;\r\n        }\r\n        amount = amount;\r\n\r\n        uint n = months % 12;\r\n\r\n        for (uint i = 0; i < n; i++){\r\n            amount = (amount * program.interestRateMonth) / 10**18;\r\n        }\r\n        // return (months,(uint(months) + uint(credit.period)));\r\n\r\n        //take into acccount whether payment has been delayed, if so, fine 10% from sum of credit\r\n        // if (months > credit.period + 1) {\r\n        //     amount = amount + credit.amount * shift / 10;\r\n        // }\r\n\r\n        // return (months, credit.period);\r\n\r\n        amount = amount/shift; \r\n\r\n        require (kekCoin.balanceOf(msg.sender) >= amount, \"Not enough KEKcoins to pay off\");\r\n        \r\n        kekCoin.transferFrom(msg.sender, address(this), amount);\r\n    }\r\n\r\n  \tfunction loadPrograms() private {\r\n  \t\tdepositPrograms[1] =  DepositProgram(1, true, 12, 5*10**2, 0);\r\n  \t\tdepositPrograms[2] = DepositProgram(2, true, 12, 8*10**2, 12);\r\n\r\n        creditPrograms[1] =  CreditProgram(1, true, 6*10**2, 1004867550565343104, 100, 100000000000);\r\n        creditPrograms[2] = CreditProgram(2, true, 8*10**2, 1006434030110003456, 100, 100000000000);\r\n  \t}\r\n  \t\r\n    // function twelfthRoot(uint x, uint precision) public view returns (uint) {\r\n    //     x = x * (precision**12);\r\n    //     if (x < 2)       \r\n    //         return (x);\r\n     \r\n    //     uint result;\r\n     \r\n    //     uint start = 1;\r\n    //     uint end = x * precision / 2;\r\n    //     uint mid;uint sqr;\r\n\r\n    //     while (start <= end){\r\n     \r\n    //         mid = (start + end) / 2;\r\n    //         sqr = fastPow(mid, 12 , x);\r\n     \r\n    //         if (sqr == x)\r\n    //             return mid;     \r\n    //         else if (sqr < x) {\r\n    //             start = mid + 1;\r\n    //             result = mid;\r\n    //         }\r\n    //         else\r\n    //             end = mid - 1;\r\n    //     }\r\n     \r\n    //     return (result);\r\n\r\n    // }\r\n\r\n    // function fastPow(uint x, uint y, uint c) public pure returns(uint) {\r\n    //     uint result = x;\r\n        \r\n    //     for(uint i = 1; i < y;i++){\r\n    //                     if (result > c) return result;\r\n    //                     if (c / result < x) return c+1;\r\n    //         result *=x;\r\n    //     }\r\n\r\n    //     return result;\r\n    // }\r\n}\r\n",
  "sourcePath": "C:/Users/andrii.riabchuk/source/projects/etherium/test_project_eth20/contracts/Bank.sol",
  "compiler": {
    "name": "solc",
    "version": "0.8.0+commit.c7dfd78e.Emscripten.clang"
  },
  "schemaVersion": "3.4.0",
  "updatedAt": "2021-05-07T13:34:27.398Z",
  "devdoc": {
    "kind": "dev",
    "methods": {},
    "version": 1
  },
  "userdoc": {
    "kind": "user",
    "methods": {},
    "version": 1
  }
}